:020000040800F2
:1000000000500020A9570008B15A0008B55A00084E
:10001000B95A0008BD5A0008C15A0008115B00080F
:10002000115B0008115B0008115B0008115B000800
:10003000115B0008115B0008115B000815670008E0
:10004000115B0008115B0008115B0008115B0008E0
:10005000115B0008115B0008D55D0008F55D000824
:10006000155E0008355E0008555E0008195D000841
:10007000315D0008495D0008655D0008815D00088C
:100080009D5D0008B95D0008895B0008115B0008F0
:100090003D6F0008115B0008115B0008755E0008E9
:1000A00099690008BD690008E1690008196A00083B
:1000B0006D6A0008DD6A00084D6B000839640008AD
:1000C00051640008456400085D640008115B000885
:1000D000115B0008B96C00080D6D0008616D000827
:1000E000B95E0008115B0008115B000810B5054CF3
:1000F000237833B9044B13B10448AFF300800123D4
:10010000237010BDC010002000000000605D0108D9
:1001100008B5064B1BB106480649AFF300800648F8
:10012000036813B1054B03B1984708BD00000000F8
:10013000605D0108C4100020C01000200000000015
:1001400070B505460E460024044BE35813B128460B
:10015000314698470434142CF6D170BDE0100020CD
:100160002DE9F041054610460C46174608F012F8F6
:100170002279D0F1010338BF00239A4202D0234AEA
:1001800012682260627923719A4218D01F4E226849
:100190003168B0468A1A312A11D931681C48A268E0
:1001A0006371A160016053B9891AB1F5FA7F15D363
:1001B000B1F5FA6F03D228460321FFF7C1FF637937
:1001C00013B3124B1A68A368D31AB3F5FA6F1BD393
:1001D00028460421BDE8F041FFF7B2BFA368D8F874
:1001E0000020C8339A420CD2384607F0D3FF0028CB
:1001F000F4D128460221FFF7A3FFC82007F0F6FF3D
:10020000DDE728460121D8E7BDE8F0815C1E00202B
:10021000DC10002010B5104C002021461F22FFF7F3
:100220009FFF04F10C0101200922FFF799FF04F15F
:10023000180102200822FFF793FF04F12401032094
:100240000A22FFF78DFF04F1300104200F22BDE8E0
:100250001040FFF785BF00BFF41000200023054ABF
:1002600052F8231011B942F8230070470133052BCF
:10027000F5D17047E0100020074B03F13C0100224C
:1002800043F80C2C03F8082C03F8072C43F8042C33
:100290000C338B42F3D17047001100206FF4EF73E1
:1002A00018440222084B90FBF2F21340002B03DAB1
:1002B000013B63F01F030133402290FBF2F043EA5D
:1002C000C01080B2704700BF1F000080024B33F89F
:1002D0001000FFF7E3BF00BF2E790108014B33F890
:1002E000100070472E7901080649C208064B8A5C47
:1002F00000F007001A703130002258709A701846CA
:10030000704700BF0C00002030110020014B185C2A
:10031000704700BFBE790108014B185C704700BFF1
:10032000D87801082DE9F7430C2304461B211A2035
:100330004C2202F02DFD012502234C221B218DE8C9
:1003400028001A200C2302F02FFB284602F072FB33
:10035000284602F069FB1D211C2002F071FB2A488F
:1003600000F0C0F80146294807F05EFE02F07CFB71
:1003700002F002FB25460135ADB2284600F0D4F864
:1003800000F006F918B9052007F030FFF8E700F093
:1003900005F91F481F4906780B781F4A1E441F4B5A
:1003A00092F800E01F78804677447F1007EB5606EE
:1003B000652E894617461E46DDD8013CA4B220466C
:1003C00000F0B2F800F0E4F818B9052007F00EFFCD
:1003D000F8E700F0E3F898F8002099F80030397851
:1003E000134432780A44521002EB5303652BE4D8CD
:1003F0001A201B214C220C2302F0CAFC6019C0F306
:100400004F0003B0BDE8F083207901087C13002081
:1004100066110020EE110020EF1100203C12002098
:1004200030B50023024618460F4931F8134031F821
:100430001010944234BF2546154694422CBFC5EB9C
:100440000404C5EB0204914234BF0D4615469142A7
:100450002CBFC5EB0101C5EB02018C42D8BFD8B25D
:100460000133482BE0D130BD2E7901081B4B10B56C
:100470001C7884B902F068FA1020214607F0A0FE2B
:100480001120214607F09CFE2020214607F098FE0F
:10049000212021461DE0124C02F01EFA2178102086
:1004A000D1F1010138BF002107F08AFE2178112027
:1004B0004B1E5942594107F083FE217820208A1EA5
:1004C0005142514107F07CFE21782120CC1E61422F
:1004D0006141BDE8104007F073BE00BF5713002014
:1004E000AA11002010B50023C15CDCB2054A21B17D
:1004F000302B02D0D1540133F6E7002313550148C5
:1005000010BD00BF3311002010B50446FFF7DEFE1A
:1005100000F048FA024802F0B7F9024B1C7010BD17
:10052000341200209112002008B5FFF7B7FE00F04A
:1005300039FABDE80840014802F0A6B9341200209B
:1005400010B50446222007F025FEE0B9D4F10101E0
:1005500038BF0021102007F033FE631E5942594175
:10056000112007F02DFEA21E51425141202007F01C
:1005700027FEB4F1030EDEF100014FF0210051EB34
:100580000E0107F01DFE014B1C7010BDAA110020CA
:10059000014802F069B900BF341200202DE9F0478C
:1005A000724E002333800F24022007F0E5FD3388CC
:1005B000013C184480B214F0FF043080F4D14FF0B5
:1005C0000F086A4B6A4D90FBF8F018802C800320CE
:1005D00007F0D2FD2B8808F1FF38184480B218F0DC
:1005E000FF082880F3D10F24614B624F90FBF4F099
:1005F0001880A7F80080042007F0BEFD3B88013C6E
:10060000184480B214F0FF043880F4D1594B4FF0F5
:100610000F0890FBF8F01880574B1C801C460620F2
:1006200007F0AAFD238808F1FF38184483B218F0B8
:10063000FF082380F3D10F24DFF8589193FBF4F4E3
:100640004D4B30881C80B9F80A20B9F808304FF0BB
:10065000640AC01AD21A80FB0A01D3170FF02CFAD1
:1006600000284E4604DB5045D4BF5FFA80F8D046E0
:10067000F389DFF824912888328A89F80080C01A2B
:10068000D21A4FF0640880FB0801D3170FF014FA58
:1006900000284D4603DB404503DCC0B202E00020E9
:1006A00000E04046DFF8F490738A89F80000B28ACF
:1006B0003888D21AC01A4FF0640880FB0801D3179B
:1006C0000FF0FAF900284F4603DB404503DCC0B2C7
:1006D00002E0002000E04046F38ADFF8C490328B4D
:1006E00089F80000D21AE01A4FF0640880FB080174
:1006F000D3170FF0E1F900284E4603DB404503DC39
:10070000C0B202E0002000E040461C4C20701C48B3
:1007100002F0AAF8A44630B300231A4C1A48E21893
:1007200052781A491A55C21852781A54CA1852786F
:100730005A54174A02EB030E9EF801E003F802E058
:1007400001333F2BE9D12B7884F83F303B7880F898
:100750003F3033780A4881F83F309CF8003082F807
:100760003F3002F091F8BDE8F08700BF641100202F
:1007700068110020EC110020F01100203C12002034
:1007800048120020AB110020511200206A110020F5
:10079000F2110020A012002066110020EE110020AE
:1007A000EF110020F8B5364B364F1B7B3C78002B01
:1007B0004BD1354B354A1E781078354B354A1D786C
:1007C0001178AE422CBF33462B46884202D9834271
:1007D00002DC06E08B4206DDAE428CBFF3B2EBB228
:1007E00002E0C3B200E0CBB25AB2964208D09542C2
:1007F00008D0904208D0914214BF2246032204E060
:10080000002202E0012200E002220CB99B1B0AE058
:10081000012C01D15B1B06E0022C01D11B1A02E066
:10082000032C0ED15B1ADBB2012B0AD91A4D2B789F
:10083000934205D1194802F017F8A0B12C7812E0C4
:100840002A70164802F020F80DE0013B032B0AD86D
:10085000DFE803F008020406012404E0022402E0B9
:10086000032400E000243B78A34208D0222007F0B4
:1008700091FC20B92046BDE8F840FFF761BEF8BD05
:10088000A0120020AA11002066110020EF11002004
:10089000EE1100203C1200205012002040120020D7
:1008A0007047000008B5054801F0DEFF28B1FFF7EA
:1008B00075FEBDE80840FFF775BF08BD3412002083
:1008C00008B5094B05211A78084B09481A7001F040
:1008D000C1FF1E21074801F0BDFFBDE808400648E2
:1008E000322101F0B7BF00BFAA1100205012002032
:1008F00040120020341200204812002010B50021C0
:1009000004461E2007F05CFC012007F07DFC214618
:100910001C2007F055FC012007F076FC01211E2069
:1009200007F04EFC012007F06FFC1E20002107F0AD
:1009300047FCBDE81040012007F066BC70B50446D6
:100940000D461D20002107F03BFC012007F05CFC58
:10095000042604F00100013EFFF7D0FF16F0FF0669
:100960004FEA5404F5D10120FFF7C8FF142405F025
:100970000100013CFFF7C2FF14F0FF044FEA5505E8
:10098000F5D101211D2007F01BFC012007F03CFCE4
:1009900021461E2007F014FC21461C20BDE87040B3
:1009A00007F00EBC01460120FFF7C8BF084B1B78BB
:1009B000082B06D0022804D1042908D1082000F011
:1009C00077BA032803D1012901D1FFF74FBD704742
:1009D0003013002008B51820002107F01DFC192055
:1009E000002107F019FC1F20042107F015FC082046
:1009F000042107F011FC0920042107F00DFC0A2056
:100A0000042107F009FC0F20042107F005FC222037
:100A1000002107F001FC1020002107F0FDFB112050
:100A2000002107F0F9FB2020002107F0F5FB212031
:100A3000002107F0F1FB0220032107F0EDFB03206A
:100A4000014607F0E9FB0420032107F0E5FB06203F
:100A5000032107F0E1FB1D20002107F0DDFB1C2036
:100A6000002107F0D9FB1E20002107F0D5FB1D2037
:100A7000012107F0A5FB1E20002107F0A1FB1C208F
:100A8000002107F09DFBBDE808400020032107F08E
:100A9000C3BB000010B5044C204600F0F5F82079E7
:100AA000BDE81040FFF730BDA012002008B5174880
:100AB0004FF4165107F008FAFFF78CFF18200121B8
:100AC00007F07EFB0021192007F07AFBFFF7E2FF19
:100AD00000F0A6F9FFF7E4FE01F0E2FE0C48FFF794
:100AE000BDFB012000F0E4F90020FFF729FD1020F4
:100AF000012107F065FB1820002107F061FBBDE82C
:100B000008401920012107F05BBB00BFC41400207E
:100B1000AD09000808B5FFF7C5FEFFF77BFB02F043
:100B200005FB00F083F901F027FFBDE8084001480C
:100B300000F06CB8A012002070B5324E05461021AE
:100B40002A88304604F006FE2F4C142120802A7992
:100B5000304604F0FFFD152120806A79304604F00C
:100B6000F9FD16212080AA79304604F0F3FD172103
:100B70002080EA79304604F0EDFD182120802A8992
:100B8000304604F0E7FD1A2120806A89304604F0DF
:100B9000E1FD1C212080EA89304604F0DBFD1E21A6
:100BA00020802A8A304604F0D5FD202120806A8AE0
:100BB000304604F0CFFD22212080AA8A304604F07E
:100BC000C9FD24212080EA8A304604F0C3FD262195
:100BD00020802A8B304604F0BDFD28212080AA7E8B
:100BE000304604F0B7FD29212080EA7E304604F02B
:100BF000B1FD2A2120802A7F304604F0ABFD208001
:100C000070BD00BFB01400209C12002038B5094C04
:100C1000054623786BB1084801F026FE48B1002351
:100C20000548237001F030FE2846BDE83840FFF744
:100C300083BF38BD9E12002094120020014B012278
:100C40001A7070479E120020132210B50260012214
:100C5000427140F26152428102828282028370229A
:100C600082766C2200244FF4DC71C2766422047117
:100C70008471C47104730181C1814182C182027790
:100C8000BDE81040FFF758BF37B5044610210DF1FD
:100C90000602544804F036FD534DBDF80630288056
:100CA000142123600DF106024E4804F02BFDBDF81F
:100CB00006302880237115210DF10602494804F001
:100CC00021FDBDF806302880637116210DF1060262
:100CD000444804F017FDBDF806302880A3711721A1
:100CE0000DF106023F4804F00DFDBDF806302880E6
:100CF000E37118210DF106023A4804F003FDBDF836
:100D00000630288023811A210DF10602354804F0AF
:100D1000F9FCBDF8063028806381002323731C2171
:100D20000DF106022F4804F0EDFCBDF806302880D6
:100D300023821E210DF106022A4804F0E3FCBDF8CF
:100D400006302880238220210DF10602254804F078
:100D5000D9FCBDF806302880638222210DF10602FD
:100D6000204804F0CFFCBDF806302880A38224215F
:100D70000DF106021B4804F0C5FCBDF806302880C2
:100D8000E38226210DF10602164804F0BBFCBDF8F3
:100D900006302880238328210DF10602114804F033
:100DA000B1FCBDF806302880A37629210DF106029A
:100DB0000C4804F0A7FCBDF806302880E37609480B
:100DC0002A210DF1060204F09DFCBDF806302880B2
:100DD00023772368132B02D02046FFF735FF03B09B
:100DE00030BD00BFB01400209C120020024841F228
:100DF000883101F02FBD00BF94120020704770476A
:100E00007047000038B5054B054618680A4618B10A
:100E1000046829466469A04738BD00BFC01200209D
:100E20000148FFF71BBA00BF050E000870B51B4D47
:100E30002868002831D00368194CDB68984723687C
:100E4000DB070AD4204607F0B9FA30B1154828214B
:100E500001F000FD204607F0CDFA2B68EBB1124BF4
:100E60001A781E46CAB10F4801F0FEFC00B970BDE9
:100E70000E4C237833B1094B186803681B689847F8
:100E800000232370286803685B6898470023337049
:100E90000448BDE8704001F0F7BC70BDC0120020EE
:100EA000341300203813002058130020C4130020EE
:100EB00070B5484D0446286810B102681269904721
:100EC000454B464A19781C70013C11700A2C74D8A5
:100ED000DFE804F0061C40660B696C4D5D606F0036
:100EE0003F48002303713F4B65E03D4C0021102239
:100EF000204610F0C3FE3C4B204640F8043B40F631
:100F0000B83101F0A7FC002323733EE0344C0021EC
:100F10006422204610F0B2FE344B012623600021EB
:100F2000667104F10900042210F0A8FE667304F152
:100F3000180304F15801002243F8082C43F8042C4C
:100F400008338B42F7D184F85D20246584F8622051
:100F5000234833E0224C00215022204610F08EFE20
:100F6000234B204640F8063B002148220BE01C4C56
:100F700000216C22204610F081FE1E4B204640F8D6
:100F8000043B0021682210F079FE204616E0144848
:100F9000194B10E01248002303714371174B0AE00C
:100FA0000F48174B07E00E48164B04E00C48164B51
:100FB00001E00B48154B036000E00020286038B1C9
:100FC00003689B689847034B186803681B68984739
:100FD00070BD00BFC012002030130020401300205D
:100FE000C4120020B07A0108387B0108587B010840
:100FF000107A0108D07A0108787B0108D07B0108BB
:10100000C07C0108507A0108807A0108307A010812
:10101000024B1A78024B1A70704700BF3013002041
:101020004013002000230371014B1B78437170476C
:10103000911200204079FFF767BA000010B501F067
:1010400007FD012001F0F6FC012001F0EDFC392143
:10105000002001F0F5FC0020FFF758F9FFF73EF9FA
:101060000B4C0A220146204607F054F8392169202A
:1010700001F0E6FC4720FFF749F9FFF72FF90A22B4
:101080000146204607F046F8BDE8104001F0ECBCF0
:101090007C1300201FB57F22002301923722029289
:1010A000009306304821642201F064FD05B05DF82C
:1010B00004EB01F0D9BC000038B50446FFF768FA2C
:1010C00000B3114A20791178104A231812780130A0
:1010D0000A440F490D780F4909782944491001EB5A
:1010E000520252109A71482390FBF3F203FB120054
:1010F000C0B22071FFF70AF9FFF706FABDE83840E1
:1011000001F0ACBC38BD00BF66110020EE1100201C
:10111000EF1100203C12002008B503685B68984777
:1011200008BD704701F094BC01F098BC01F09CBC74
:1011300008B503685B68984708BD704701F088BC34
:1011400001F08CBC01F090BC08B503685B6898475F
:1011500008BD01F07DBC01F081BC00007FB501F04D
:1011600077FC012001F066FC012001F05DFC082104
:10117000032001F065FC8A48FFF7B4F9014689486D
:1011800006F052FF1621032001F05AFC8648FFF7B3
:10119000A9F90146834806F047FF2421032001F006
:1011A0004FFC8248FFF79EF901467E4806F03CFF5F
:1011B0003221032001F044FC7D48FFF793F90146FA
:1011C000784806F031FF08210F2001F039FC794BF7
:1011D000794C1878FFF788F80146724806F024FF2A
:1011E0002378764D5BB902230120009301900B23F5
:1011F0000621092201F0D8FB714B1B782B70207857
:1012000001280AD10223009301900B231421092203
:1012100001F0CAFB6B4B1B782B702378022B0AD191
:101220000120009301900B232221092201F0BCFB35
:10123000654B1B782B702378032B0BD102230120E5
:10124000009301900B233021092201F0ADFB5F4B8D
:101250001B782B702378042B17D1022301200093D5
:10126000062109223523019001F09EFB544B1A7888
:10127000544B1B781344544A1178544A12780A4448
:10128000521002EB53035B102B70514C2A782378D9
:101290000F209A428CBF0233023B3221237001F0AF
:1012A000CFFB0A2221783F4806F03DFF4948FFF76F
:1012B00019F901463B4806F0B7FE20780EF0B8F960
:1012C0000DF0CAFD0022444B0DF01AFE0022434BE4
:1012D0000DF040FF0EF0AEF80023024600934020D0
:1012E0002021012301F090FB1E2201232021402018
:1012F00001F010FD20780EF09BF90DF0ADFD0022FD
:10130000374B0DF0FDFD0022344B0DF023FF0EF0A6
:10131000B9F80125C3B200956B20C3F14001142236
:1013200001F022FD2F4801F09FFA18B1192029463B
:1013300006F046FF2C4D284601F096FA18B12948D0
:1013400001F092FA18B901F08FFB04B070BD20785B
:101350000EF06EF90DF080FD0022204B0DF0FAFE2C
:101360000022224B0DF0CCFD02460B4600201F4907
:101370000DF012FC0EF086F802AE81B2304601F09C
:1013800069FA96E80300A980090C2860A97115483C
:1013900001F07AFA1920002106F012FFD3E700BF0E
:1013A000687A01087C1300206A7A01086C7A0108C7
:1013B0006E7A010891120020421300204113002090
:1013C00066110020EE110020EF1100203C120020D9
:1013D00015000020707A010800003E4000005940CE
:1013E000000050404C1300204413002000409F4058
:1013F000012A09D1022907D1044B1A780132D2B24D
:10140000042A88BF00221A70704700BF42130020D0
:1014100008B50021044801F01DFABDE80840034862
:10142000322101F017BA00BF441300204C130020F2
:1014300008B503685B68984708BD01F009BB01F077
:101440000DBB00002DE9F3415C221C23042105465D
:10145000032001F09DFC042001F0ECFAB44C0120C3
:1014600001F0E2FA0421032001F0EAFA2078FEF705
:101470003BFF0146AF4806F0D7FD5C220E23272133
:10148000022001F085FC022001F0D4FA012001F0D5
:10149000CBFA2721022001F0D3FA2078FEF71EFFB5
:1014A0000A220146A34806F035FE287920B93521E5
:1014B0005C220E2301F06CFC0F223F2300217120DF
:1014C00001F066FC012001F0B5FA012001F0ACFA50
:1014D0007320362101F0B4FA974AD37E17464F2B7A
:1014E00008D89648FEF7FEFF0146924806F09CFD9C
:1014F000542512E0772B08D89148FEF7F3FF0146F8
:101500008C4806F091FD7E2507E08E48FEF7EAFF45
:101510000146884806F088FDA8250124022675208A
:101520000021062204230096019401F03DFA712067
:1015300003210E222F230096019401F035FA824BED
:101540000A201978814BFA7E1B7800FB01302A2390
:10155000801AAA1A80FB0301D3170EF0ADFA2044BB
:10156000002803DD2B2803DCC3B202E0234600E0A1
:101570002B230122C3F13001009273200A2201F0D3
:10158000F3FB734B312418786422A0FB0401002381
:101590000EF092FA6F4B01303228D8BFC6B21878DD
:1015A0004FF06402A0FB04014FF00003C8BF3226D5
:1015B0000EF082FA684B01303228D8BFC5B21878D5
:1015C0004FF03104A0FB04014FF064024FF0000320
:1015D000C8BF32250EF070FA604B01303228D8BFF8
:1015E0005FFA80F818784FF06402A0FB04014FF016
:1015F0000003C8BF4FF032080EF05EFA0130322807
:10160000D8BFC7B24FF001044FF04B004FF00001BC
:101610004FF024024FF03F03C8BF322701F0B8FB60
:101620004C20C6F1320107223346009401F09CFBA6
:10163000C5F132012B4655200722009401F094FB9E
:101640005E20C8F1320107224346009401F08CFB72
:101650003B460722C7F132016720009401F084FB6A
:10166000204601F0E7F9204601F0DEF936214D2051
:1016700001F0E6F93A48FEF735FF01462D4806F03D
:10168000D3FC3621562001F0DBF93648FEF72AFF5D
:101690000146284806F0C8FC36215F2001F0D0F949
:1016A0003148FEF71FFF0146224806F0BDFC3621F7
:1016B000682001F0C5F92D48FEF714FF2C4D0146B6
:1016C0001C4806F0B1FC2B7843B902238DE81800C2
:1016D0004B20342109220B2301F066F92B78012BD2
:1016E00008D102228DE80C005420342109220B235A
:1016F00001F05AF92B78022B08D1009301230193B2
:101700005D20342109220B2301F04EF92B78032BA5
:1017100009D1022201238DE80C0066203421092220
:101720000B2301F041F902B0BDE8F04101F09CB992
:10173000911200207C130020A0120020987A01084A
:101740009B7A01089E7A0108C6130020C513002069
:1017500066110020EE110020EF1100203C12002045
:10176000687A01086A7A01086C7A01086E7A0108C1
:10177000AA11002038B5184B08291B7805464FEAF6
:10178000D30203F0070301D1013211E011F1080F78
:1017900001D1013A0CE0012904D10133082B08BF23
:1017A000002305E0013103D1013B591C08BF072389
:1017B00003EBC203472B01DD483B02E0002BB8BF1F
:1017C0004833DCB22046FEF79FFE04480471FFF761
:1017D00035FA00232B7138BD91120020A012002091
:1017E00070B5144B04461878FEF778FDFEF79AFDA5
:1017F0000546FEF799FE3821092001F021F9012064
:1018000001F018F9012001F00FF929460A220A48CF
:1018100006F080FC27203B210422012301F07AFA04
:10182000012323711A201B214C220C23BDE8704098
:1018300001F0AEBA911200207C130020012A0B4661
:101840000BD1022908BF082102D01BB94FF0FF318C
:10185000FFF790BF012B06D1FAE7032A03D1022933
:1018600001D1FFF7BDBF704710B5041D204601F040
:1018700093FB20461849194A194B01F091FB204669
:101880001849194A194B01F08BFB20461849194A8F
:10189000194B01F085FB20461849194A194B01F0F4
:1018A0007FFB20461849194A194B01F079FB204665
:1018B0001849194A194B01F073FB20461849194A77
:1018C000194B01F06DFB20461849194A194BBDE828
:1018D000104001F065BB00BFE87A010858700108AC
:1018E00063190008ED7A0108387201085D190008D3
:1018F000F87A01083871010857190008FF7A0108C1
:101900005873010851190008097B0108587401082F
:101910004B190008137B0108B8710108451900082C
:101920001A7B0108B87201083F190008247B0108DE
:10193000D8730108391900080920FFF7B9BA0A203D
:10194000FFF7B6BA0720FFF7B3BA0420FFF7B0BA23
:101950000320FFF7ADBA0220FFF7AABA0620FFF76F
:10196000A7BA0120FFF7A4BA012A08B515D10129A9
:1019700007D002D302290BD008BD043001F024FBAC
:1019800002E0043001F017FBBDE8084001F066B842
:101990000430BDE8084001F020BB08BD30B521216E
:1019A00085B07F2501240191009502947B207D2242
:1019B000252301F00FF81D210095019102947B2051
:1019C0007D22192301F006F805B030BD37B504308B
:1019D00001F00BFB04460068FEF784FD10F006FDE5
:1019E0000546022001F026F8012001F01DF8EDB2B5
:1019F0006FF0050068432E213F3001F021F8206888
:101A0000FEF770FD01460B4806F00EFBA36873B1AC
:101A1000202213462F20072101F0BAF901222023AA
:101A2000009301922F200721A26801F07DFA03B0F4
:101A300030BD00BF7C13002010B5044601F008F84B
:101A40002046FFF7C3FFFFF7A9FFBDE8104001F0F4
:101A50000BB810B5044600F0FBFF2046FFF7B6FFB9
:101A6000FFF79CFFBDE8104000F0FEBF01230373A9
:101A7000704708B503681B68984708BD38B5051D51
:101A80000446284600F0F0FE50B1284600F0FCFE67
:101A9000237B83F001032373BDE8384000F0DEBFF1
:101AA00038BD0000014B1878FFF702BA4013002040
:101AB00013B5044600F0CCFF237B53B14022012331
:101AC00000208DE80C000146154A802301F02CFA15
:101AD00020E0012000F0A8FF124C062000F0AAFF31
:101AE00002211E2000F0ACFF2078FEF7FDFB01462E
:101AF0000D4806F099FA022000F09CFF30212620C4
:101B000000F09EFF2078FEF7E9FB0A220146064816
:101B100006F000FB02B0BDE8104000F0A5BF00BF1A
:101B2000D8740108911200207C13002090F8600006
:101B3000034B044A00280CBF10461846704700BFEC
:101B4000F8700108D870010890F8613013B1012BCA
:101B500002D070470148704701487047187101086A
:101B60003873010870B590F8613004460B4D90F859
:101B700062002BB9012684F86160FEF7C7FB04E020
:101B8000002684F86160FEF7C7FB84F86200EE71FE
:101B90000248BDE87040FFF751B800BFA012002016
:101BA00090F8603083F0010380F860300148837161
:101BB000FFF744B8A012002038B500F11005044624
:101BC0000E4928460E4A01F015FA28460D4A0E49DC
:101BD00001F010FA0D4B9A791879003218BF0122E2
:101BE00084F86020DA79003218BF012284F861207D
:101BF0000AB9FEF791FB84F8620038BD2D1B00087E
:101C0000A11B0008651B0008491B0008A01200204A
:101C1000C37970B50446002B3AD0007A94F862502C
:101C20003049431BDBB209780130E218C0B2032B04
:101C30005172207201D8472824D900231E46194624
:101C4000E018407ADAB2884203F101039CBF3246C1
:101C50000846042B02D016460146F1E71544EDB2C2
:101C600084F862502846FEF751FBFEF74DFC2846EB
:101C7000FEF74CFB1C4B18711846FEF7DFFF0023E4
:101C8000E37170BDFEF742FBBDE87040FEF73CBC5F
:101C9000037933B3837990F8622063B911490978E5
:101CA000312908D90121027243728372C37203730E
:101CB0000371C17170BD63791344DBB2FF2B01D195
:101CC000472302E0472B88BF002384F8623094F852
:101CD0006200FEF71BFBFEF717FCA3790BB1002394
:101CE000A37170BD66110020A012002008B590F805
:101CF00060300BB9FFF78CFFBDE8084000F0AEBEC6
:101D000010B590F8613090F862000BB9FEF7FEFA5A
:101D10000446FEF7F9FB03480471BDE81040FEF7E6
:101D20008DBF00BFA012002070B5044610300D46D4
:101D3000164601F069F900283CD194F86030DBB90F
:101D4000012E37D1022D0BD11B4B1878FEF7C6FAA6
:101D5000FEF7E8FAFEF764FBBDE87040FEF7D4BB7F
:101D60001DB92671A671667170BD012D22D1FF23A8
:101D70002571A571637170BD012E1BD1022D19D083
:101D800065B994F862300133DBB2472B0FD984F880
:101D900062502046BDE87040FFF7B2BF012D09D167
:101DA00094F86230013BDBB2FF2B08BF472384F875
:101DB0006230EEE770BD00BF9112002007B501232D
:101DC00002228DE80C00002039213322072300F085
:101DD000EBFD3A2000214022032300F09BFE3B2034
:101DE0002F214522032300F065FE3B201F214522C1
:101DF000032300F05FFE3B200F214522032300F068
:101E000059FE3B203F214522032303B05DF804EB3C
:101E100000F050BE08B5042000F00CFE012000F0D8
:101E200003FE0421032000F00BFE054B1878FEF79B
:101E30005BFABDE808400146024806F0F5B800BF6D
:101E4000911200207C13002008B5022000F0F2FD62
:101E5000012000F0E9FD2721022000F0F1FD054BF3
:101E60001878FEF73BFABDE8084001460A2202480E
:101E700006F050B9911200207C13002013B590F8A1
:101E800062302F245C43482394FBF3F40023009337
:101E9000E01CC4F12F023B21032300F065FF012366
:101EA000009302203B212246032300F05DFF02B095
:101EB00010BD000030B5002385B044250E248DE808
:101EC000280002941248402164223B2300F072FF54
:101ED00010238DE8280002940E48402164223B2301
:101EE00000F068FF20238DE8280002940A48402172
:101EF00064223B2300F05EFF30238DE8280002942B
:101F00000648402164223B2300F054FF05B030BD59
:101F1000AB110020511200206A110020F2110020A4
:101F200038B5044600F094FD012000F083FD022046
:101F300000F07AFD0121342000F082FD1D48FEF7FB
:101F4000D1FA1D4D0146284606F06EF810213420C6
:101F500000F076FD1948FEF7C5FA0146284606F05E
:101F600063F82021342000F06BFD1548FEF7BAFA23
:101F70000146284606F058F83021342000F060FD74
:101F80001048FEF7AFFA0146284606F04DF8204605
:101F9000FFF714FF2046FFF73DFF2046FFF754FFF1
:101FA0002046FFF76BFF2046FFF784FFBDE838406F
:101FB00000F05ABD687A01087C1300206A7A010893
:101FC0006C7A01086E7A010810B5042104463122AA
:101FD00003201C2300F0DCFE0220272131220E23E7
:101FE00000F0D6FE3B212F220323022000F0D0FE7A
:101FF0002046FFF743FF2046FFF75CFF2046FFF730
:1020000009FF2046FFF720FF04F1100001F035F82A
:10201000BDE8104000F028BD704708B503685B6854
:10202000984708BD00F014BD00F018BD70B500F071
:102030000FFD384E012000F0FDFC0620082100F0C5
:10204000FFFC3278344D023AD2B2D3B213F0800F93
:1020500002D02B781344DBB2304C5BB254F823101F
:102060002F4805F0E1FF1220014600F0E9FC32782C
:10207000013AD2B2D3B2190602D52B781344DBB29F
:102080005BB254F82310264805F0CEFF1E201C2119
:1020900000F0D6FC01222248002102F027F996F92F
:1020A00000301F4854F8231005F0BEFF00221C48E2
:1020B000012102F01BF91220262100F0C1FC317829
:1020C0002A780131C9B2CBB258B28242DCBFC2EB2E
:1020D0000103DBB25BB254F82310114805F0A4FFF2
:1020E0000620302100F0ACFC31782A780231C9B2E8
:1020F000CBB258B28242DCBFC2EB0103DBB25BB2AF
:1021000054F82310064805F08FFFBDE8704000F03A
:10211000ABBC00BF541300201600002018000020A4
:102120007C130020012A1DD102291BD059B90E4B66
:102130001A78013AD2B2D1B21970090612D50B49F8
:1021400009780A440DE001290CD1074B074A197898
:1021500012780131C9B2C8B2187040B2824201DCB3
:102160008A1A1A70704700BF54130020160000200E
:10217000002303710149024805F067BFE87B0108AD
:10218000C414002000F06ABC10B5044600F060FCE6
:102190002379042B00F2B780DFE803F00317203423
:1021A0003D00012000F046FC0020014600F048FC04
:1021B0005748FEF797F90146564805F035FF0020CD
:1021C000102100F03DFC544810E0012000F032FCEA
:1021D0000020014600F034FC50488EE0012000F061
:1021E00029FC0020014600F02BFC4D48FEF77AF94F
:1021F0000146484805F018FF0020382100F020FC77
:1022000048487AE0012000F015FC0020014600F06B
:1022100017FC454871E0012000F00CFC002001464D
:1022200000F00EFC4148FEF75DF90146394805F023
:10223000FBFE0E21002000F003FC3D48FEF752F9A2
:102240003C4C0146334805F0EFFE1E200E2100F005
:10225000F7FB0A2221892F4805F05CFF36200E216A
:1022600000F0EEFB0A22E1892A4805F053FF4E20D8
:102270000E2100F0E5FB0A22618A264805F04AFF9C
:1022800066200E2100F0DCFB0A22E18A214805F0DD
:1022900041FF1621002000F0D3FB2748FEF722F96A
:1022A00001461C4805F0C0FE1E20162100F0C8FBA8
:1022B0000A226189174805F02DFF3620162100F00B
:1022C000BFFB0A22218A134805F024FF4E20162165
:1022D00000F0B6FB0A22A18A0E4805F01BFF66201B
:1022E000162100F0ADFB218B0A220A4805F012FFEF
:1022F0000020382100F0A4FB1048FEF7F3F8014657
:10230000044805F091FEBDE8104000F0ADBB00BFF1
:10231000F57B01087C1300200C7C0108377C010848
:10232000577C0108207C01086D7C01088E7C010827
:10233000987C0108A01200209E7C0108A47C010862
:1023400038B50446FEF724F9002800F0818023798F
:10235000012B1ED0032B38D13E4B1A883E4B598996
:10236000914238BF5A813D4A198A128891423CBF36
:1023700039490A823A4A998A12881B8B91423CBF9A
:1023800035498A82374A128893423CBF324B1A83BE
:102390001BE0304B1A88304B1989914288BF1A8153
:1023A0002E4AD9891288914284BF2B49CA812C4A6E
:1023B000598A1288DB8A914284BF27494A82294A76
:1023C0001288934201D9244BDA82274D48232A7878
:1023D000013292FBF3F103FB1120C0B2FEF794F837
:1023E000237903F0FD03012B1DD1022000F022FB15
:1023F000182214233A20202100F0CAFC20213A2080
:1024000000F01EFB2878FDF76FFF0146174805F026
:102410000BFE00F029FB00F0AFFA3A202021182231
:10242000142300F0B5FC2B7893B963790133DBB248
:10243000032B63710CD12379012B03D0032B03D120
:10244000042300E002232371BDE8384000F006BBFE
:1024500038BD00BF64110020A012002068110020C8
:10246000EC110020F0110020911200207C130020BC
:10247000022910B503462AD1012A28D10079022861
:102480000ED0042819D0F0B91A715871FEF73CF833
:102490000F4B4FF6FF721A81DA815A82DA8212E00C
:1024A000002403221A715C712046FEF72DF8084BB8
:1024B0005C811C829C821C8305E00548FEF73CFB86
:1024C0000820FEF7F5FCBDE8104000F0C7BA10BDCB
:1024D000A012002008B503685B68984708BD08B5DE
:1024E00003685B68984708BD70477047F7B5314B84
:1024F00093F900201F46013226D100F0A9FA0120ED
:1025000000F098FA0F210C2000F09AFA2A48FDF703
:10251000E9FF0146294805F087FD1E21162000F03D
:102520008FFA2748FDF7DEFF0146244805F07CFDC1
:102530002D211D2000F084FA2248FDF7D3FF01462B
:102540001E4805F071FD30E000F082FA012000F035
:1025500071FA00243B57002B24DB04F003031626FA
:102560005E431425A3105D4306F1140005F111012B
:1025700000F066FA0F4B185DFDF7B6FE01460F48F6
:1025800005F052FD104B1B789C420BD10222012317
:102590008DE80C0006F1120005F10F010F220B234C
:1025A00000F002FA0134082CD4D103B0BDE8F040A9
:1025B00000F05ABA2C000020D87C01087C130020BF
:1025C000EC7C0108FC7C0108551300202DE9F04F3C
:1025D000DFF8E0B1FF2300258BF800308BF80130E5
:1025E0008BF802308BF803308BF804308BF8053011
:1025F0008BF806308BF80730654B85B0824628464D
:102600001D70FDF783FEFDF769FE283887B247206D
:10261000FDF77CFEFDF762FE28301FFA80F93C468C
:102620002E464C4580F0A38000F012FA012000F005
:1026300001FA0020014600F003FA5648FDF752FF68
:102640000146554805F0F0FC4FF002084FF0010C30
:102650008DE80011352180220A230020CDF808C022
:1026600000F0A2F9404600F0E5F9142330221020D2
:10267000162100F08DFB1020162100F0E1F90A224E
:102680002146454805F046FD4448FDF72BFF01462D
:10269000414805F0C9FCE31B7E225A43DDF808C01F
:1026A000C7EB090392FBF3F24046CDF800C0372197
:1026B000D2B2062300F058FB2046FDF735FFFDF7A8
:1026C00067FF18B9012005F091FDF8E7FDF766FFF7
:1026D000334B93F80080334B1A78334B1978334BD4
:1026E0008A422CBF104608461B784045ACBF864640
:1026F000C6469E4503DD404502DD804600E0984623
:10270000012000F097F933202A2100F099F90A22DC
:102710004146214805F007FD2A214C2000F090F9A0
:102720002348FDF7DFFE01461B4805F07DFCB8F1AC
:10273000320F04D94EBBA31E9BB2039325E00FD0EA
:1027400076B1072D0CD8039800262044C0F34F0023
:10275000FDF7E8FDFDF764FE0BF805000135EDB26D
:10276000023400F081F9A4B200F006F959E79BF8B1
:102770000000030601D4FDF7C7FEDAF8003050462A
:102780005B68984705B0BDE8F08F0126E8E700BF19
:1027900055130020077D01087C130020137D0108DC
:1027A000EF11002066110020EE1100203C120020E5
:1027B000187D01082C000020012A70B50FD10229D4
:1027C00015D1224D224C2E78A05DFDF787FDFDF737
:1027D000A9FDFDF725FE2B78A055E05C30E0032A2B
:1027E00032D1022930D1BDE87040FFF7EFBEA1B968
:1027F000164A17491378013BDBB2FF2B05D0137043
:102800001378C85C02061BD570BD0723C8565C1E32
:102810000130E4B2F3D12346F8E7012914D10B4A81
:102820000B4913780133DBB2072B137002D8CB5658
:10283000013301D1002313701378C85C030603D45D
:10284000BDE87040FDF760BE70BD00BF55130020AD
:102850002C000020034A818012681144002201608C
:10286000827170475C1E00200346807938B9054AA2
:1028700011681A68914203D30120987170470120B2
:10288000704700BF5C1E0020034B82881B68134406
:1028900003600023837170475C1E002070470000B6
:1028A00010B50C4C3C2201232046022102F07AF89C
:1028B0002046012101F017FD2046012101F00EFD07
:1028C0002046002101F015FD2046BDE8104001F032
:1028D000A7BF00BF7C13002008B5064B186802F0A4
:1028E00085FB0548AF2101F0CBFF044B00221A7095
:1028F00008BD00BF5C1300207C130020571300208C
:102900007FB5002404EB4406B6B2002529B222B2FA
:102910000B4801F03DFF69000323019040B2009392
:10292000029009B2074832B20223013502F019FAC7
:10293000802DEBD10134A4B2402CE3D104B070BDA2
:102940007C1300205C13002008B50848AE2101F07C
:1029500097FF012200230648022102F08BFAFFF7BD
:10296000CFFF044B01221A7008BD00BF7C1300206A
:102970005C13002057130020084B10B51A781C4632
:1029800052B1074B1B7813B1FFF7BAFF02E00548BD
:1029900001F0AAFF0023237010BD00BF56130020D2
:1029A000571300207C1300207FB51BB20093BDF9A4
:1029B000203006B20193BDF824300DB214B2029358
:1029C000034831462A46234601F03AF904B070BD67
:1029D0007C1300207FB51BB20093BDF9203006B2F6
:1029E0000193BDF924300DB20293BDF8283014B222
:1029F0000393044831462A46234601F0B7F904B050
:102A000070BD00BF7C13002070B59BB206B20DB242
:102A100014B2049331462A4623460248BDE870406A
:102A200000F066BF7C13002081B2014801F05BBC5E
:102A30007C130020C1B2014801F050BC7C1300207F
:102A400003B20AB20148194601F045BC7C130020CC
:102A5000014801F0E5BE00BF7C130020014B0122BC
:102A60001A70704758130020014B01221A707047EA
:102A700056130020014B01221A707047C413002026
:102A800008B50748074B0849084A036005F090FC61
:102A9000BDE8084006484FF0FF3101F0A9BE00BF75
:102AA0005C130020A31400209D28000808000020CB
:102AB0007C1300202DE9F743022793FBF7F78046AC
:102AC000894616461D46BFB20024B4420CDA04EB18
:102AD000080101230093064809B20FFA89F23BB2BC
:102AE00001F012FC2C44F0E703B0BDE8F08300BF16
:102AF0007C13002073B59BB206B20DB214B20093E2
:102B0000034831462A46234601F0FEFB02B070BD61
:102B10007C1300202DE9F743022793FBF7F780464B
:102B2000894616461D46BFB20024B4420CDA04EBB7
:102B300009020223009306480FFA88F112B23BB251
:102B400001F0D2FC2C44F0E703B0BDE8F08300BFF5
:102B50007C13002073B59BB206B20DB214B2009381
:102B6000034831462A46234601F0BEFC02B070BD40
:102B70007C1300202DE9F04F89B01F469DF84830A6
:102B8000019002939DF850309DF84C0007920393FA
:102B90000D460CF04DFD044628460CF049FD4FF063
:102BA0007E510CF093FC0646314620460CF04CFE5C
:102BB000314604900CF094FD014620460CF086FC52
:102BC000059038460CF034FD002604465FFA86FA7C
:102BD0006B1E9A4580F29B80019B13F80A000CF053
:102BE00027FD804607980CF023FD074639464046EE
:102BF0000CF032FF00B1B846019B534458780CF0FA
:102C000017FD394683460CF027FF00B1BB460398F9
:102C10000CF00EFD8146494640460CF061FD3946F8
:102C20000CF012FE014648460CF050FC4946804626
:102C300058460CF055FD39460CF006FE0146484654
:102C40000CF044FC0499814620460CF041FC0746F8
:102C5000BAF1000F02D0AB1E9A450AD14FF07E5157
:102C600005980CF035FC4FF07C510CF039FD014615
:102C700000E0002138460CF02BFC41460746484650
:102C80000CF024FC2146814638460CF01FFC01461E
:102C900048460CF0D9FDA3460690584639460CF03C
:102CA000BDFE002830D0214658460CF00FFC069996
:102CB0000CF016FD014640460CF00AFC002182464D
:102CC0000CF0ACFE08B14FF0000A58460CF0CEFEF6
:102CD000814650460CF0CAFE82460299484652464A
:102CE0000023FFF737FF039B029A48461A445146D8
:102CF000CAEB02020123FFF72DFF58464FF07E5129
:102D00000CF0E6FB8346C8E701363C465EE709B0B7
:102D1000BDE8F08F2DE9F3411C4606460D461746E7
:102D2000931EA2B2009231B22AB20E481BB24FEAF1
:102D3000470800F0DDFD08F101083046294623462A
:102D40000022FFF7D7FEF01B294642462346FFF735
:102D5000D1FE3046E91B4246234602B0BDE8F041B1
:102D6000FFF7F8BE7C13002073B51BB20093BDF8CB
:102D7000183006B20DB214B20193044831462A4607
:102D8000234600F0DFFC02B070BD00BF7C130020C2
:102D900073B51BB206B20DB214B2009300230193B7
:102DA000034831462A46234600F0CCFC02B070BDF1
:102DB0007C1300202DE9F04F8BB01E469DF850305B
:102DC0009DF8545004939DF858300C46099204998C
:102DD0002A46074630460593FFF7DAFF28460CF0EF
:102DE00027FC054620460CF023FC4FF07E510CF0EA
:102DF0006DFB8046414628460CF026FD4146069074
:102E00000CF06EFC014628460CF060FB0790304643
:102E10000CF00EFC002506465FFA85FB621E93450A
:102E20007DDA17F80B000CF003FC824609980CF0D1
:102E3000FFFB8046414650460CF00EFE00B1C246F4
:102E400007EB0B0250780CF0F3FB414681460CF087
:102E500003FE08B1424600E04A46059803920CF092
:102E6000E7FB8146494650460CF03AFC41460CF0DF
:102E7000EBFC014648460CF029FB039A08904946B2
:102E800010460CF02DFC41460CF0DEFC0146484695
:102E90000CF01CFB0699824630460CF019FB80466C
:102EA000BBF1000F02D0A21E93450AD14FF07E5114
:102EB00007980CF00DFB4FF07C510CF011FC014613
:102EC00000E0002140460CF003FB804604980CF023
:102ED000B3FB814630460CF0C9FD089903B2484661
:102EE00003930CF0F5FA0CF0C1FD0FFA80FB40469D
:102EF0000CF0BCFD514606B248460CF0E9FA0CF065
:102F0000B5FD039B00B201220090019219460548CD
:102F100033465A4600F048FC013546467CE70BB084
:102F2000BDE8F08F7C1300202DE9F84F0B9F814600
:102F30008A46934698460024444527DA26460025CB
:102F40000A9B9D4220DA124A0823324096FBF3F393
:102F5000002A1BF8033003DA013A62F0070201325B
:102F6000C2F10702134104EB090105EB0A0203F069
:102F70000103084809B212B20FB983F0010301F04E
:102F8000A1FB01354644DBE70134D5E7BDE8F88F06
:102F9000070000807C13002000230366436670470F
:102FA00070B5046E0C266643013485198151AA6000
:102FB0006B60046670BD436E026E013393424366DC
:102FC000A4BF002343667047436E013B002B43665A
:102FD00002DA036E013B4366704708B5436E0C226C
:102FE00002FB03004368984708BD436E0C2202FBB6
:102FF0000300704710B5436C00EBC30440F8331076
:1030000062600133436410BD022938B5044613D110
:10301000032A11D190F84C3083F0010380F84C3032
:103020000BB9FFF727FD94F84C500DB9012522E0AC
:10303000102384F84D301EE094F84C50DDB1012986
:1030400011D008D3022916D1A36C206C04EBC30362
:103050005B6898470FE0A36C013B002BA364E5DAA3
:10306000636C013B06E0A36C626C01339342A36482
:10307000DCDB0023A364284638BD2DE9F74390F834
:103080004C300446002B4DD090F84D3033B1043B0A
:10309000DBB21A0648BF002380F84D3094F94D008A
:1030A000002570302946102240230095FFF75CFE72
:1030B00094F94D0029466F3040220123FFF74AFD65
:1030C000676C2E46C7EB4717FF001F37FFB2636CD4
:1030D000F5B29D4226DAA36C4FEA0518AB420AD13D
:1030E00094F94D00012310220093703008EB070182
:1030F0001346FFF739FE54F83530206C94F94D90A3
:103100009847A16C10234D1B18BF012509F17009C8
:10311000B84402460093019548464146FFF704FF34
:103120000136D4E703B0BDE8F083000038B50F25C1
:103130000024002005F020F8013D204415F0FF0593
:1031400084B2F6D10F2294FBF2F41A4A0A231188B2
:10315000B4FBF3F401EBC10191FBF3F10C44A4B215
:10316000702115481480B4FBF1F2027001FB124289
:10317000124892B2B2FBF3F303701148FFF774FBED
:1031800018B11920012105F01BF80E48FFF76CFB60
:1031900078B10B48FFF768FB58B10A48FFF774FB9A
:1031A0000748FFF771FBBDE838401920002105F002
:1031B00007B838BDD0130020C6130020C513002067
:1031C000C8130020D413002008B544F62061064837
:1031D000FFF740FB32210548FFF73CFB002004F0DD
:1031E000CBFF034B188008BDD4130020C813002068
:1031F000D01300200346406818B1597B002203F029
:1032000085BB7047162804D01728034818BF002034
:1032100070470248704700BF009A0108FC990108F6
:103220002DE9F04F054687B000798A46FFF7EAFF9F
:10323000002831D090F80090194C90F801B04FEA76
:10324000091909EB040287784FEA0B1BC6780BEBD0
:1032500004081046059204EB0717FFF7CBFF404622
:10326000FFF7C8FF04EB06163846FFF7C3FF3046EA
:10327000FFF7C0FF059A2846137B5BF804205146F0
:10328000009298F80C2001923A7B0292327B0392D2
:1032900059F8042003F009FA07B0BDE8F08F00BF29
:1032A0000083010810B50C4603F018F920B1094A53
:1032B000012818BF002200E0074A52080023944268
:1032C00004D20133072B4FEA5202F8D1034A1344C8
:1032D000187A10BD006CDC0200366E01FC99010802
:1032E00070B5002304460122C36103622273637335
:1032F00063602364636484F8302084F831302422CE
:10330000A3624B1E02FB034319480129206060623F
:10331000A364184A184E05D0022907D131681961F3
:10332000164B02E011681961154B1C6013681049B7
:1033300023611879FFF7B6FF124DA0602B68616A10
:10334000A3610323637502232375336863631879CC
:10335000FFF7A8FF2B680022E363052384F83930C8
:10336000042384F83830A36CE062DA73204670BD21
:1033700000093D006405002068050020DC130020E2
:10338000E0130020C8040020826C10B5137B516844
:10339000012B41F4407414BF802300231069117A7B
:1033A0002343527BBDE8104003F06DB9836C10B528
:1033B0000446186903F03DF9A36C01211869FFF771
:1033C0002FFF2046FFF7E0FFA36C0122DA7310BD48
:1033D000836C37B50446186903681A6812F0060F43
:1033E00014D09A68D10704D5DA6892B2ADF80620F5
:1033F000F7E79A689207FCD59A6822F07F0212F0EC
:10340000FF05F9D103F024F9A36CDD7303B030BDDF
:10341000836C99601B6901F038011B681A6822F0FF
:103420003802114319607047836C19731B691A685D
:10343000136823F0800309B943F0800313607047D9
:10344000836C5973836C01F003011B691B681A6854
:1034500022F00302114319607047836C1B691B68DB
:10346000DA68D9609A689107FCD59A681206FCD48C
:10347000D868C0B27047000001480121FFF730BF93
:10348000E413002008B5036801211B68984708BDB4
:1034900038B504460023406D211D012202F080FE54
:1034A000C5B26BB201331AD1606D83685A0505D578
:1034B00013F0020F0CBF0325022504E013F4006F84
:1034C0000CBF0425012503681A6822F001021A6066
:1034D000002380F8233094F8581002F0F5FD2846B8
:1034E00038BD034693F85810406D02F0EDBD000062
:1034F000416D074A10B502600A68146824F001049F
:103500001460002281F823204265024A026010BD47
:10351000287D0108407D01080648074B07490360E4
:10352000074B084A1B684365002380F8583004F0B5
:103530003FBF00BF30140020287D0108F13400088F
:103540003485010808000020002380F8523080F8FC
:10355000533080F8303080F83130704790F8523076
:10356000C9B203443233C360002381800381C38026
:10357000704738B590F8535004463DB903681B684E
:10358000984784F8525084F8535038BD012038BD14
:103590000121FFF7EEBF90F85230202B04D1012318
:1035A00080F85330002070475A1C034480F85220A2
:1035B00083F8321003890133038101207047C9B2B7
:1035C000FFF7E9BF2DE9F74F1E46BDF9303015462C
:1035D000C2EB0309721AB9F1000FB8BFC9F10009B3
:1035E000002AB8BF52429145D4BF4FF000094FF0B6
:1035F000010980460C46BDF834B0B9F1000F04D083
:1036000032462C461E460D461346B44205DD2A4678
:103610001D461346224634461646C4EB060A5A1B7C
:103620001FFA8AFA82EAE271A1EBE2710FFA8AF7D5
:10363000022297FBF2F74FF6FF729D42B8BF0122BC
:103640000091BFB20192B4421DDCD8F80030404670
:10365000D3F814C0B9F1000F02D02946224601E088
:1036600021462A465B46E047009ABF1ABBB29FB28A
:103670003A0405D5019903EB0A070D442DB2BFB2F8
:10368000013424B2DFE703B0BDE8F08F704710B516
:103690000468E468A04710BD37B5BDF81850046849
:1036A0000095646BA04703B030BD37B5BDF8185026
:1036B00004680095A46BA04703B030BD37B5BDF9D1
:1036C000185004680095BDF81C500195E46BA047A4
:1036D00003B030BD7047F7B5154602681E46013E7F
:1036E000136904460F462E449847BDF820302268DF
:1036F00036B201930096566A204639462A463B4622
:10370000B047236820469B6A984703B0F0BDF7B5E1
:10371000154602681F46136904460E469847BDF8D1
:10372000201022687B1E019100953344576A204681
:1037300031462A461BB2B847236820469B6A984701
:1037400003B0F0BD2DE9F3471F4603680E461B6921
:1037500004469046BDF92890BDF82CA09847354600
:10376000F3199D4221680BDACDF800A0D1F81CC0F6
:103770002046294642464B460135E0472DB2EFE749
:103780008B6A2046984702B0BDE8F08713B5B0F9C0
:103790000E200468009201910021B0F90C30E46B16
:1037A0000A46A04702B010BD2DE9F74399421446DE
:1037B00006460D461F46BDF92880BDF82C900268CC
:1037C0000CD1444502DD23464446984608F10108E1
:1037D000CDF80090C4EB0803576B0AE044450ED1C6
:1037E000994201DD3D460F460137CDF800907B1B25
:1037F000976B3046294622461BB2B8470FE0136943
:1038000098478DE8000333683046D3F824C0294632
:103810003B462246E047336830469B6A984703B0F0
:10382000BDE8F0832DE9F743994603680446BDF8E7
:103830002C601B690F461546BDF928809847236800
:103840000096D3F820C0204639462A464B46E0472A
:10385000236808F1FF3200962A44D3F820C020469E
:1038600039464B4612B2E04723680096D3F81CC095
:10387000204639462A464346E04709F1FF39236886
:10388000009609EB0701DE69204609B22A46434645
:10389000B047236820469B6A984703B0BDE8F08391
:1038A000704701F00301012941760389428904D060
:1038B000032902D08381C28170478281C38170470E
:1038C00030B50A4D0024018142818181C2814FF6C9
:1038D000FF710122446005604476048244820276CE
:1038E000C18281828276C476C46130BD587D010870
:1038F0002DE9F04F1FFA83F887B00293C8F1010356
:103900009BB20193C8EBC8335B009BB2059303687D
:10391000044691461B69BDF840500F461FFA89F6D0
:103920009847236808EB0602D3F814C039462046AE
:1039300012B22B46E0472368C8EB0602D3F814C046
:103940003946204612B22B46E047BFB2236808EB47
:103950000701D3F814C0204609B24A462B46E04777
:103960002368C8EB0701D3F814C04A46204609B2C1
:103970002B46E04700220492049A13B2029A934223
:1039800080F28780019B1B040CD4029A531E059A77
:103990001BB20293931C9BB29AB20592019A1344F4
:1039A0009BB20193049B019A1FFA83F802EB480330
:1039B00003339BB20193029B07F1010B9BB2994623
:1039C000C3440393B14423680FFA8BFB0FFA89F9C0
:1039D000D3F814C059464A4620462B4607F1FF3A11
:1039E000E047C8EB0A0A23680FFA8AFAD3F814C032
:1039F00051464A4620462B46E047039A2368C2EBCD
:103A000006090FFA89F9D3F814C059464A462046E8
:103A10002B46E04723685146D3F814C04A46204657
:103A20002B46E047DDF80CA006F1010B2368C344E8
:103A3000BA440FFA8AFA0FFA8BFBD3F814C0204667
:103A400051465A462B46E047039B2046C3EB0709E5
:103A500023680FFA89F9D3F814C049465A462B4611
:103A6000E047731EC8EB030823680FFA88F8D3F801
:103A700014C02046514642462B46E0472368424642
:103A8000D3F814C0204649462B46E047049A013239
:103A900071E7236820469B6A984707B0BDE8F08F1E
:103AA0002DE9F04F1F469BB2C3F10108C3EBC333AE
:103AB00087B05B009BB203929DF840200593BDF850
:103AC000446000230446029104921FFA88F801938F
:103AD000019A13B2BB4280F2B08018F4004F09D1B2
:103AE000059A013F931C9BB29AB298443FB205924B
:103AF0001FFA88F8019B049A9DB208EB450808F16B
:103B0000030850071FFA88F822D5029B039A1FFA70
:103B100083FA1FFA82F923681FFA87FB0AF1010171
:103B20000BEB09022944D3F814C0204609B212B2A3
:103B30003346E04709F1010923680BEB0A0105EB65
:103B40000902D3F814C0204609B212B23346E04746
:103B5000049B990722D5029A039B1FFA82FA1FFA47
:103B600083F91FFA87FB23680AF10101CBEB0902F5
:103B70002944D3F814C0204609B212B23346E047B4
:103B800009F1FF3923680BEB0A01C5EB0902D3F8F1
:103B900014C0204609B212B23346E047049A120715
:103BA00022D5039A029B1FFA82F91FFA83FB1FFAA0
:103BB00087FA236809F10102CAEB0B012A44D3F802
:103BC00014C0204609B212B23346E0470BF1FF3B66
:103BD0002368C5EB0B010AEB0902D3F814C0204699
:103BE00009B212B23346E047049BDB0721D5039BA1
:103BF000029A1FFA83FA1FFA82FB23681FFA87F9D9
:103C00000AF1FF32C9EB0B01521BD3F814C0204656
:103C100009B212B23346E0470BF1FF3B2368C5EB14
:103C20000B01C9EB0A025D69204609B212B23346A4
:103C3000A847019A013201924AE707B0BDE8F08F28
:103C40002DE9F04F924689B00268BDF94C7007919A
:103C50009B4613690446BDF85050BEB29847079B77
:103C60001FFA8BFBC6EBC639CDF810B09BB24FEAFA
:103C7000490903931FFA89F99846049BCB46B0443F
:103C80009B4423680FFA88F80FFA8BFB0095CDF858
:103C90001490D3F820C02046414652465B46E04788
:103CA000BDF848901FFA8AFA09F1FF3353449BB2DA
:103CB000069323680095D3F820C0069B2046414612
:103CC0001AB25B46E047059BB244994423680FFA59
:103CD0008AFA0FFA89F90095D3F81CC02046079993
:103CE00052464B46E047049BDDF80CB000959B44E0
:103CF0001FFA8BFB23680BF1FF31D3F81CC0204661
:103D000052464B4609B2E04701238DE82800204681
:103D1000414652463B46FFF7C3FEF3439B440FFA2E
:103D20008BFB02238DE828002046594652463B462D
:103D3000FFF7B6FE069B20469E1B36B204238DE895
:103D40002800594632463B46FFF7AAFE08238DE875
:103D500028002046414632463B46FFF7A1FE236835
:103D600020469B6A984709B0BDE8F08F2DE9F04FD7
:103D70008DB0BDF958400546BDF86400A2428946A1
:103D800016461F46BDF95CA0BDF96080049003DDB6
:103D90002646B94614460F46444505DD23464446AB
:103DA00098463B4657469A46A64205DD3346264688
:103DB0001C464B46B9461F462B6828461B69984748
:103DC00046451ED14F4506DB4F45ACBF3B464B46F3
:103DD0004F460FFA83F9BA4505DBD145B8BFD14646
:103DE0000FFA89F9BA4604992A6809F10109009184
:103DF000CAEB0903146A2846514632461BB2A04753
:103E00008FE0BFB21FFA89F9C9EB07039BB2B1B2C9
:103E10000893A3B25A1A92B21FFA8AFA4445C9EB20
:103E20000A0B0992C7EB0A0A1FFA88F2C1EB0201DA
:103E30001FFA8AFAC3EB020218BF03F1FF331FFA1D
:103E40008BFB89B2CDF828A092B218BF1BB24FF0FD
:103E5000000A0397CDF818B007910B9214BF059391
:103E600005943746D34605998F4227DC0798099A6F
:103E700001B2089813B29BFBF3F302B29AFBF1F183
:103E800006984B4449449BB289B2934402B292448F
:103E900018B20AB2904202DC0A4619461346049848
:103EA0002A68013300905B1AD2F820C028463A46AF
:103EB00009B21BB20137E0473FB2D4E70A9A069B2A
:103EC0000FFA82FA3C1B0FFA83FBBE1B04FB0AF4B9
:103ED00006FB0BF6474524DC0B98039903B2079ABF
:103EE00094FBF3F30B4411B296FBF1F149449BB2FE
:103EF00089B218B20AB2904254445E4402DC0A46C7
:103F00001946134604982A68013300905B1AD2F8C8
:103F100020C028463A4609B21BB20137E0473FB2FB
:103F2000D8E72B6828469B6A98470DB0BDE8F08F0C
:103F30002DE9F04F91B08A461F46BDF86810C3695D
:103F4000044604920591BDF86C609DF87050002BFA
:103F500040F0B280B0F90C30534540F33E81B0F9E7
:103F60000E30934240F33981062303FB05A3002B57
:103F700040F3338102EBC503002B40F32E81C37E57
:103F80001BB9AF2F84BF0137FFB2236820461B69DE
:103F9000984707EB8707052200230A9709920693A3
:103FA000DDF818E08E4A0A994FFA8EF30A44D25C83
:103FB0001FFA8AF89BB2039305FB03830792049AC6
:103FC0009BB297B2089307F108039BB20B93B946D3
:103FD000BB46079BDA0717D5012D226809D1039943
:103FE000D2F814C04144204609B20FFA89F2059B69
:103FF00019E005992BB201910093D2F818C0089AE4
:10400000204611B23AB21CE0059B9E421AD0012D07
:1040100022680AD10399D2F814C04144204609B25B
:104020000FFA89F23346E0470CE02BB28DE84800E6
:10403000DDF820E0D2F818C020460FFA8EF10FFA12
:104040008BF2E047079909F101090B9A1FFA89F9E8
:1040500049082F44AB4491450791BFB21FFA8BFB2F
:10406000B7D1DDF818E009990EF10103DBB2069330
:104070004B1E13F0FF03099392D1059A964200F06C
:10408000A880012D236809D108F105010096DD699A
:10409000204609B2049A0823A8479AE005EB850256
:1040A00008EB0201EA008DE8440020469E6909B24F
:1040B000049A2B46B0478CE01A7A5968BF1AFFB2AF
:1040C0001B6801EBC70292F803E00D9331F837B09B
:1040D000937851799279012D0793CDF838E00891C2
:1040E000099205D953B24EB29BB2B6B2039302E025
:1040F0000022039216461FFA8AFA06FB05A62368D9
:10410000B6B21B69204698470C960026CDF818A039
:10411000B046B2460E9AF3B293425AD2049B1FFAAB
:1041200086FE9BB20B93039973460B9A0B4403FBD9
:104130000523DDF830909BB2CDF828E00F930027DF
:104140000799FBB203EB0A028B42D2B23CD253076F
:1041500007D1DDF834E00BF101031EF80B801FFAE4
:1041600083FB18F0800F26D0012D206815D1089A06
:10417000069BDDF824E051B219440B9B4FFA8EF2F6
:10418000DDF828E01A4439447244D0F814C009B26A
:10419000204612B2059BE0470DE005992BB2DDF8F1
:1041A0003CE001910093D0F818C00FFA89F1204645
:1041B0000FFA8EF2E0474FEA4808A9445FFA88F800
:1041C00001371FFA89F9BBE78A445FFA8AFA013698
:1041D000A0E7236820469B6A984711B0BDE8F08F9E
:1041E000A87D0108F0B5C26985B004460B466ABBDC
:1041F0000A2905D10282438A027E03EBC2032EE024
:104200000D2965D0817E007E69B1B4F910100625B4
:1042100005FB0015B4F90C108D4204DD2282628A80
:1042200002EBC0026282A58AB4F912200095E58AE9
:104230000290B4F9101001952046FFF779FE237E15
:10424000228A03EB430302EB430340E00A2908D12F
:1042500000230382917A037E428A01FB0323638257
:1042600036E00D2934D0157AA94231D3517A9942DA
:104270002ED351685D1B01EBC505A978E87809B319
:1042800000B3A67E6F79207E86B1B4F910607FB24C
:10429000394401FB0061B4F90C60B14206DD002134
:1042A0002182917A628A01FB00226282A68A0290B0
:1042B0000096E68AB4F91010B4F91220019620464F
:1042C000FFF736FE2979237E228A01FB032323820E
:1042D000012005B0F0BD018242827047002908BF6D
:1042E000012101767047C182818270478182C2823A
:1042F000704781767047407E7047B0F90C00704778
:10430000B0F90E007047000070B5457EBDF8104052
:10431000022D09D0032D10D0012D40F09380058986
:10432000013DAA1A12B20CE04589013DAA1A05897D
:1043300012B2ED1A691A09B284E04589ED1A691AB8
:1043400009B2002A7DDBB0F90850954240F3C580E0
:10435000002902DA0B441BB200214089CE1805B2B5
:10436000AE42C4BFC1EB00031BB2002B40F3B580CB
:10437000C9B25A48CD0800EBC51011F00701DBB2F5
:10438000024420D0C1F10801C9B255488B42405CBB
:1043900004D2CD1AFF2646FA05F52840012C05D097
:1043A00007D3022C09D11578684005E01578284319
:1043B00002E0157825EA000010708B42C0F08D8075
:1043C0005B1ADBB28032072B26D9022C02F1800166
:1043D000A3F1080002F580750CD1C0F3C40005EB11
:1043E000C01511F8806CF64301F8806C8031A94249
:1043F000F7D10CE0C0F3C400012C0CBFFF2600264F
:1044000005EBC01501F8806C8031A942FAD101306A
:1044100002EBC01203F00703002B5ED03149012CE0
:10442000CB5C03D005D3022C08D070BD11780B43B0
:1044300002E0117821EA0303137070BD11784B403C
:10444000FAE770BD002A48DBB0F90A50954244DD16
:10445000002902DA0B441BB200210089CE1805B2F4
:10446000AE42C4BFC1EB00031BB2002B35DD0820F8
:104470001A4D92FBF0F005EBC010014402F0070268
:10448000012000FA02F28442D2B203D00DD3022CF2
:1044900018D070BD013B1BB25D1C05D011F8010B9B
:1044A000104301F8010CF5E770BDD243D2B2013BD5
:1044B0001BB25C1C05D011F8010B104001F8010C77
:1044C000F5E770BD013B1BB2581C05D011F8010B7C
:1044D000504001F8010CF5E770BD70BD44000020AC
:1044E0003C0000203400002070B5457EBDF810402F
:1044F000022D08D0032D0FD0012D5FD10589ED1AB3
:10450000AA1A12B20CE00589013D691A458909B25F
:10451000ED1AAA1A12B251E04589013D691A09B291
:1045200000294ADBB0F90A508D4240F3C380002ACB
:1045300002DA13441BB200220089D61805B2AE423B
:10454000C4BFC2EB00031BB2002B40F3B3800820B2
:10455000594D91FBF0F005EBC010024401F007014A
:10456000012000FA01F18442C9B203D00DD3022C1C
:1045700018D070BD013B1BB25D1C05D012F8010BB9
:10458000084302F8010CF5E770BDC943C9B2013B0D
:104590001BB25C1C05D012F8010B084002F8010C9C
:1045A000F5E770BD013B1BB2581C05D012F8010B9A
:1045B000484002F8010CF5E770BD70BD002979DBB9
:1045C000B0F908508D4275DD002A02DA13441BB29F
:1045D00000224089D61805B2AE42C4BFC2EB000328
:1045E0001BB2002B66DDD2B23348D50800EBC510F4
:1045F00012F00702DBB201441FD0C2F10802D2B2AE
:104600002E489342805C04D2D51AFF2646FA05F55F
:104610002840012C05D007D3022C09D10D78684021
:1046200005E00D78284302E00D7825EA00000870C7
:1046300093423FD39B1ADBB28031072B26D9022C41
:1046400001F18002A3F1080001F580750CD1C0F3DF
:10465000C40005EBC01512F8806CF64302F8806CBC
:104660008032AA42F7D10CE0C0F3C400012C0CBF89
:10467000FF26002605EBC01502F8806C8032AA42A6
:10468000FAD1013001EBC01103F0070393B10C4ADA
:10469000012CD35C03D005D3022C07D070BD0A785F
:1046A000134305E00A7822EA030301E00A78534045
:1046B0000B7070BD70BD00BF440000203C000020A6
:1046C00034000020F8B50D1E064614461F465BDB7D
:1046D000FFF713FE854257DA002C55DB3046FFF713
:1046E0000FFE844250DA3046FFF705FE022843D120
:1046F0003389013B5D1B73892DB2013B1C1B24B226
:1047000006E0012804D13389013B1B1B2C461DB256
:10471000012F03D010D3022F1ED0F8BD082394FB25
:10472000F3F304F00704A7401BB205EBC315174BC6
:104730005C5D27435F55F8BD082394FBF3F301222A
:1047400004F0070402FA04F41BB205EBC3150F4B87
:104750005A5D22EA04040DE0082394FBF3F30122DE
:1047600004F0070402FA04F41BB205EBC315074B6F
:104770005A5D54405C55F8BD0328C2D17389013B92
:104780005B1B25461CB2C3E7F8BD00BF44000020F8
:1047900070B506460D461446FFF7ADFD022809D058
:1047A000032810D0012813D13389013B1B1B2C4651
:1047B0001DB20DE03389013B5D1B73892DB2013BB6
:1047C0001C1B24B204E07389013B5B1B25461CB211
:1047D000082394FBF3F305EBC315044B04F0070423
:1047E000585D204100F0010070BD00BF4400002072
:1047F00038B540220D4680210446FFF761F8074B8B
:1048000084F825502360FF2384F8223084F8263072
:1048100084F8243084F82330204638BDB082010863
:10482000024800214FF480620DF028BA44000020B5
:1048300090F82730F0B50F4623B11048BDE8F0409E
:10484000FEF70BBEC36A082480251968C26B3D427F
:1048500021EA02021A60826A866B11684FEA5505E6
:1048600014BF0E4321EA060616601968C26B013CAC
:1048700041EA02021A60E8D1F0BD00BFE413002053
:1048800070B590F92230044601330D4617D0036B02
:10489000026C1D682A431A60426B456C166826EA52
:1048A000050515601D68026C25EA02021A60FFF713
:1048B000BFFF236B226C19680A431A6070BD94F91C
:1048C00020100848FEF74AFE00210648FEF763FE66
:1048D00029460448FEF75FFEBDE870400148FEF738
:1048E00057BE00BF30140020F8B521210446FFF761
:1048F000C7FF20460021FFF7C3FF20467F21FFF7B7
:10490000BFFF20462221FFF7BBFF20460021FFF713
:10491000B7FF20460721FFF7B3FF94F922301F4F5E
:1049200001331DD0236B226C196800250A431A60DD
:10493000626B616C1068014311601968226C21EA96
:1049400002021A60795D20460135FFF771FFB5F567
:10495000806FF7D1236B226C19680A431A60F8BD87
:1049600000250F4894F92010FEF7F8FD0C4840216F
:10497000FEF725FE0026AB199BB20948F95C01360B
:10498000FEF709FE102EF6D11035ADB20448FEF741
:10499000FFFDB5F5806FE4D1F8BD00BF44000020F5
:1049A000301400202DE9F843994690F9223004464E
:1049B000013384F821100E4680F8202054D090F85E
:1049C0002400002103F028FC94F82600002103F0C5
:1049D00023FC94F926306C4D1B01EA18EB58012793
:1049E0001B6894F827800C332363137B07FA03F3C7
:1049F000236494F924301B01EA18EB581B680C332C
:104A00006363137B07FA03F36364B8F1000F20D1EB
:104A100094F82200414603F0FFFB94F8230041463E
:104A200003F0FAFB94F923201201AB18AA5812687C
:104A30000C32E2621B7B94F9222007FA03F3120185
:104A4000E363AB18AA5812680C32A2621B7B9F402A
:104A5000A76394F827305BB14C48FEF7A7FC4B489E
:104A60000921FEF7D5FC03E049480021FEF739FD96
:104A7000B9F1000F19D094F82500002103F0CCFB08
:104A8000012194F8250003F09BFB012003F0AEFB0D
:104A9000002194F8250003F093FB0A2003F0A6FB05
:104AA00094F82500012103F08BFB2046AE21FFF78F
:104AB000E7FE2046D521FFF7E3FE20468021FFF7E1
:104AC000DFFE2046A821FFF7DBFE20463F21FFF74F
:104AD000D7FE2046D321FFF7D3FE20460021FFF763
:104AE000CFFE20464021FFF7CBFE8D212046FFF769
:104AF000C7FE012E0CBF102114212046FFF7C0FE77
:104B000020462021FFF7BCFE20460021FFF7B8FE1B
:104B10002046A121FFF7B4FE2046C821FFF7B0FED2
:104B20002046DA21FFF7ACFE20461221FFF7A8FE4F
:104B300081212046FFF7A4FE012E0CBF9F21CF212B
:104B40002046FFF79DFED9212046FFF799FE012E52
:104B50000CBF2221F1212046FFF792FE2046DB21E7
:104B6000FFF78EFE20464021FFF78AFE2046A42153
:104B7000FFF786FE2046A621FFF782FE2046AF21E2
:104B8000BDE8F843FFF77CBE00830108E413002072
:104B900030140020016101F1887182824901D2083C
:104BA000C38202834383C161704730B50C1E1BDB97
:104BB000002A19DB858AAC4216DAC18A8A4213DAE6
:104BC0006A43A4B204F0F8052A4404F0070407324B
:104BD000012BC169C4EB020404D01BB151F824308D
:104BE00083F0010341F8243030BD2DE9F04F85B04A
:104BF000BDF9387014465A1A0D469846D10F3B1B22
:104C000082EAE279A9EBE279002AD4BF4942C1F1F4
:104C10000101DA0F83EAE37AAAEBE37A002BD4BF2F
:104C20005242C2F10102454501909DF83CB002910B
:104C30000392CAEB090601D1BC4205D00198414656
:104C40003A465B46FFF7B1FF22465B46019829468C
:104C5000FFF7ABFF7300CAF10002934204DD029A32
:104C6000CAEB060615442DB24B4503DA039B4E44AE
:104C70001C4424B24545E7D1BC42E5D105B0BDE8AE
:104C8000F08F2DE9F0419A4204468C4615469DF876
:104C9000187006D111463B466246BDE8F041FFF769
:104CA00084BF02DDD2B21D461346228B4FF00808A6
:104CB00005F00706FF210CFB02FC95FBF8F203F060
:104CC000070541FA06F629411FFA8CFC624493FB62
:104CD000F8F392B2634410B2C9431BB29842C9B20E
:104CE000F6B204BF0E400021012F10D12569013218
:104CF0002F5C12B23E432E549A42206904DA551CAE
:104D0000FF2686542AB2F7E7835C194326E097B959
:104D1000256901322F5C12B227EA06062E549A4208
:104D2000206904DA551C002686542AB2F7E7835C12
:104D300023EA010112E0022F11D1256901322F5C13
:104D400012B27E402E549A42206905DA865C551CC8
:104D5000F64386542AB2F6E7835C59408154BDE895
:104D6000F0812DE9F34799469DF93030074601332C
:104D70000D461646BDF928A09DF82C4001D090465E
:104D800054E009F1FF330AF1FF3A1FFA8AFA9BB2A5
:104D90000FFA8AF943B9B9F1000F08D1234602B0DE
:104DA000BDE8F047FFF701BFB9F1000F0AD1B244E7
:104DB0000FFA8AF22B440A920B943846294632465F
:104DC0001BB22EE003EB0108B6B20FFA88F8B2442A
:104DD0000092434601941FFA8AFAFFF706FF0FFA82
:104DE0008AF28DE81400384629464346FFF7FDFE57
:104DF000B9F1010F2CDD01360AF1FF3A36B20FFA94
:104E00008AFA3846294632462B46CDF800A001944E
:104E1000FFF7EBFECDF828A00B943846414632460A
:104E2000434602B0BDE8F047FFF7DFBE06EB0A03DA
:104E300098450DDA09EB05034146009438462A46A9
:104E40001BB208F10108FFF71CFF0FFA88F8EDE725
:104E500002B0BDE8F087000010B5054C204603F015
:104E60005BF820464FF6FF71BDE8104003F06EB8C6
:104E70000416002070B50446006800F0FDF82068B4
:104E800000F0E8F80646206800F022F805462068A1
:104E900000F024F8314603462A462046FFF77AFE02
:104EA0001920072103F0B8F92046BDE87040FFF74C
:104EB000D3BF0000054B1B689B6C1B691B689A687D
:104EC00012F08002FBD1DA60704700BFA41400200A
:104ED000014B1888704700BF8E140020014B1888C2
:104EE000704700BFA01400207FB50F4B0F4D1B680B
:104EF0000F4C9B6C0E461B6921781A6800230090AA
:104F00009220019302900C32286800F0E9FE286894
:104F10002178324600F0A2FE2868217804B0BDE86E
:104F2000704000F0C5BE00BFA41400209C140020F7
:104F30004C040020F8B5244B244C1B88226803F154
:104F40001D01914218DA2249226809881E310B445A
:104F5000934211DD1F4F204E3B78204D06EB03138B
:104F6000D9882868FFF7C0FF3B7806EB03131A7A4D
:104F70007AB12268D2070CD42368012B184B0DDDBF
:104F8000124A1268042A09DC1B6840F284521B682A
:104F900007E0DA882B6813442B60EDE71B6870226A
:104FA0001B689A632368013323600E4B22681B88B9
:104FB0009A4207DD054B01221A600B4B1A68074B1A
:104FC0001A60F8BDF8BD00BF8C1400204804002012
:104FD000AC140020A21400200C9A010894140020A4
:104FE000A885010846040020A814002038B505460D
:104FF000124C134802F090FF0121114802F0C6FF45
:1050000023689B6C186901F04AFB0E4B18680E4B25
:10501000197800F03FFE2068FEF7DAF92B781BB90B
:105020000A4B18680CF02CFA094B1B78022B04D1A0
:105030002068BDE8384003F08BB838BDA4140020C8
:10504000FC1500209C1400204C040020A814002013
:1050500044040020014B1868704700BFA8140020CA
:10506000034B00211868034B1A880CF007BE00BFE1
:10507000A8140020901400202DE9F74F5F4E17462A
:10508000042988BF02215E4A31700901551804467F
:10509000505A5C49B146088069885B489046018057
:1050A000E888AD884843594980B2088058490D8046
:1050B0005849002525700F708A46574D1BB12B604B
:1050C0000123237002E00CF0D3F928602046FFF79B
:1050D000C7FF2A68514B022F1A60514B4FF0010253
:1050E0001A60504C504DDFF860B1504E0DD14C203D
:1050F00003F02CF839460190FEF7F2F8019B23608B
:10510000DBF800302B60052305E0494B2360DBF81A
:1051100000302B60032320683370FEF747F92068C6
:105120000121FEF781F920680321FEF789F99AF839
:1051300000303C4F022B99F8003008EB031303D1E9
:10514000D9683868013901E03868D968FEF760F934
:10515000236828689B6C1B691B681A6842F44042EC
:105160001A6000F078FD334A3178286800F07EFD3F
:10517000236801249B6C186901F08BFA02211C2022
:1051800001F080F92C4802F0C7FE2B48022102F002
:10519000D3FE294840F2F45102F0D4FE0120072149
:1051A00003F03AF8254B20461B6870211B685B0111
:1051B00003F18443C3F8144402F0CCFF204B214692
:1051C0001A881D48A53292B202F0CDFE21461A4837
:1051D000022202F0C4FE1B4A2146174802F0D2FE0A
:1051E0000021154802F0B2FE134802F0D3FE124827
:1051F00003B0BDE8F04F02F097BE00BFA21400203C
:105200000C9A01088E140020A01400209014002095
:10521000AC14002044040020A814002094140020A2
:1052200048040020A41400209C1400204C040020FA
:10523000E4130020B54E0008FC150020A8850108E5
:1052400098140020354F0008C8040020024B1A684B
:10525000024B1A60704700BFC80400209C14002055
:105260000B4BDA68D0070CD4DA6851070BD4DA6834
:10527000D2060AD4DB6813F0010F0CBF052004200E
:10528000704701207047022070470320704700BF1D
:105290000020024013B50446FFF7E2FF01280FD1BA
:1052A00064B100230193FF230193019B13B1019B80
:1052B000013BF9E7FFF7D4FF013CEFE7062002E0EE
:1052C000002C08BF062002B010BD000038B505460E
:1052D00040F6FF70FFF7DEFF052815D10B4C40F6B6
:1052E000FF70236943F0020323616561236943F082
:1052F00040032361FFF7CEFF062803D0236923F084
:10530000020323613423E36038BD00BF0020024064
:10531000104B00F178429A4270B505460E4616D8F9
:105320001F20FFF7B7FF052812D10B4C1F20236960
:1053300043F0010323612E80FFF7ACFF062803D062
:10534000236923F0010323613423E36070BD072048
:1053500070BD00BFFEFF070000200240034B044A5F
:105360005A6002F188325A60704700BF0020024044
:105370002301674510B50C884FF6FF73A4B29C4219
:10538000806805D00B889BB2934201D0832010BD6A
:105390000B1D0A18934204D21A680132F6D1043365
:1053A000F7E7002010BD38B50B880C469BB2591E9C
:1053B00089B24FF6FD72914203D84EF6EE629342E7
:1053C00003D165880135ADB200E000252046FFF726
:1053D0007DFF052805D1A01C2946BDE83840FFF710
:1053E00097BF38BD70B505460C461646FFF7C2FF9D
:1053F00060B128462146FFF7D6FF052806D128468A
:1054000021463246BDE87040FFF7B4BF70BD016869
:1054100040680B8802889BB292B233B94FF6FF7096
:1054200082420CBF0846002070472AB94FF6FF722F
:10543000934218BF002070470020704770B5856800
:1054400000200D440631A94214D231F8044B4FF626
:10545000FF73A4B29C42F6D09442F4D00B46AB4208
:1054600005D21E88B6B2A642EDD00433F7E701306C
:1054700080B2E8E770BD2DE9F74F856881460E469A
:1054800092469B4601EB05080C1D444524D2236837
:10549000013323D00434F8E735F8021C204689B2E2
:1054A000FFF736FF052833D1A01C3946FFF730FF40
:1054B00005282DD10434043D019B9D421AD92F8823
:1054C0004FF6FF73BFB29F42F5D05F45F3D0B31DD7
:1054D000A34209D34445DFD3812019E00AF1040334
:1054E000023D01935544E7E7198889B2B942E2D0F9
:1054F0000433EDE7514648464FF6FF72FFF772FF5F
:10550000014628B93046FFF703FF052808BF0020F1
:1055100003B0BDE8F08F2DE9F04705460F469046F1
:10552000FFF775FF0446002861D0AB6800EB030964
:10553000A9F10206A64210D933889BB2BB4214D10E
:1055400036F8023CB01E9BB2434502D10020BDE8B4
:10555000F0874FF6FF72934201D0261D0BE04146C3
:10556000FFF7D6FE0528F8D1F0E7043EE2E73368FE
:10557000013303D004364E45F9D30DE030464146A1
:10558000FFF7C6FE052836D1B01C3946FFF7C0FE2E
:105590000528DBD0BDE8F087284621463A46FFF7CC
:1055A0004DFFAB6801309B0880B2013B984221D28D
:1055B0006E684EF6EE61B44208BF2E683046FFF7C3
:1055C000A7FE052817D1301D4146FFF7A1FE05288B
:1055D00011D1B01D3946FFF79BFE05280BD1284697
:1055E000314622463B46BDE8F047FFF744BFAB20BB
:1055F000BDE8F0878120BDE8F08710B50446FFF7CD
:10560000ADFE216820460022FFF7ECFE014690B96E
:1056100020684FF6FF73028892B29A4203D1FFF7D7
:1056200077FE052807D1204661684FF6FF72BDE876
:105630001040FFF7D7BE10BD2DE9F0410446FFF73B
:105640008DFEAB232268A38117886668BFB23588B8
:105650004EF6EE639F42ADB21CD04FF6FF78474541
:1056600002D0002F39D12FE015B92046114609E0AC
:105670009D4209D130460021FFF74AFE05283DD161
:10568000216820463A4637E0BD4238D12046FFF730
:10569000B4FF33E02DB91146204632464FF6FF7372
:1056A00018E04FF6FF739D4229D1314620462A4625
:1056B000FFF798FE0146A08108BB2068FFF728FE8F
:1056C000052808BF002019E0CDB19D422046314693
:1056D00011D14346FFF7CFFE10E015B92046114621
:1056E00009E09D420BD130460021FFF711FE05284D
:1056F00004D1216820464246FFF774FEA081A089AC
:10570000BDE8F0814FF6FF7370B5138083890446BE
:10571000842B0E46154604D1FFF78EFF08B1A089F1
:1057200070BD2046FFF773FE90B1A368023B0344AF
:10573000063083420AD31A8892B2B24204D133F8B7
:10574000023C00202B8070BD043BF2E7822070BD3C
:10575000AB2070BD838970B5842B04460D46164678
:1057600004D1FFF769FF08B1A08970BD4FF6FF7340
:105770009D4206D0204629463246BDE87040FFF7DC
:10578000CABE822070BD0000054B064A1A6002F5B1
:1057900080625A604FF480629A6084229A817047D6
:1057A000B014002000F8010801498D46014908475E
:1057B00000500020B957000808B5124B124A19686A
:1057C000914201D0002301E0104B07E01048D418AB
:1057D0008442F9D2C858D0500433F7E70D4A9342B7
:1057E00003D2002243F8042BF8E70BF019FE002047
:1057F0000146024602F0A4FC074B0BB10BF0F0FB94
:10580000FEE700BFAC9A010800000020C010002095
:10581000C0100020A01E0020E10F010808B50D4BAC
:105820001A680AB90C4A1A601B680C4AD21A8242DA
:1058300004DB09494242591A914206DA0BF0CAFBCD
:105840000C2303604FF0FF3008BD024A184410607B
:10585000184608BDC0140020A01E002058C0012812
:10586000002070474FF400534B6000207047012028
:1058700070474FF0FF3070470020704710B50C465E
:10588000FFF7FAFF2070012010BD704770B5154674
:105890000C468E18B44204D014F8010BFFF7F5FF44
:1058A000F8E7284670BDFEE7704700000B4B10B5C7
:1058B000196809220A230A4802F0BCFA094B02229D
:1058C00019680948032302F0B5FABDE81040074BF8
:1058D000074819681A221B2302F0ACBA0006002000
:1058E000C414002004060020DC1400200806002058
:1058F000F414002010B5044600F092F9034B204642
:105900001978BDE8104000F017B900BF540400201A
:10591000F8B50446056800F04BFF226800235101EA
:1059200001F184410B60802129600121A9622B6172
:10593000EB606379696113B18B4203D02BE04FF4C4
:1059400000436B644FF6FF73D36200256E1CF7B201
:105950002046394600F036FFD0B1236848F6FF7183
:1059600003F1340242F8251018336D1017F0010FBF
:1059700053F8252014BF6FF0FF016FF47F4101EA57
:10598000020214BF68214FF4D0410A4343F8252096
:10599000042E3546DAD1216801224B01490103F179
:1059A000844301F18441C3F880220A60F8BD0000FD
:1059B00038B5274B274C1A68012042F010021A60B4
:1059C00000F09CFA0025002000F09EFD6560236831
:1059D000182023F40023236000F0A3FD102000F022
:1059E000A0FD00F041F8A560102000F08DFD102012
:1059F00000F0A5FD0028FAD000F037F8164800F0B6
:105A0000ABFD182000F080FD182000F098FD002864
:105A1000FAD0022000F068FD00214FF0006000F095
:105A200045FD4BF67F3000F06DFE00F036F80B4B75
:105A3000188800F0E3F80A4800F0E4F8094800F09C
:105A4000A3FE00F02CF800F02BF8FFF72DFF38BD77
:105A5000002002400010024058040020560400209C
:105A6000F558000811590008704708B50020014694
:105A700000F0B0FD01204FF4806100F0ABFD00218B
:105A8000022000F0A7FD2D2000F0B4FDBDE8084085
:105A900003204FF4800100F09DBD00F039BA70473B
:105AA00000F076BA000000000000000000000000D6
:105AB000012007E0022005E0032003E0042001E0CC
:105AC0000520FFE70D4A0121116072B60C4A002142
:105AD0001160074902B4084902B486B005498E46F0
